{
  "contractName": "HarmonyNFT",
  "abi": [
    {
      "inputs": [],
      "stateMutability": "nonpayable",
      "type": "constructor"
    },
    {
      "anonymous": false,
      "inputs": [
        {
          "indexed": true,
          "internalType": "address",
          "name": "owner",
          "type": "address"
        },
        {
          "indexed": true,
          "internalType": "address",
          "name": "approved",
          "type": "address"
        },
        {
          "indexed": true,
          "internalType": "uint256",
          "name": "tokenId",
          "type": "uint256"
        }
      ],
      "name": "Approval",
      "type": "event"
    },
    {
      "anonymous": false,
      "inputs": [
        {
          "indexed": true,
          "internalType": "address",
          "name": "owner",
          "type": "address"
        },
        {
          "indexed": true,
          "internalType": "address",
          "name": "operator",
          "type": "address"
        },
        {
          "indexed": false,
          "internalType": "bool",
          "name": "approved",
          "type": "bool"
        }
      ],
      "name": "ApprovalForAll",
      "type": "event"
    },
    {
      "anonymous": false,
      "inputs": [
        {
          "indexed": false,
          "internalType": "address",
          "name": "sender",
          "type": "address"
        },
        {
          "indexed": false,
          "internalType": "uint256",
          "name": "tokenId",
          "type": "uint256"
        },
        {
          "indexed": false,
          "internalType": "string",
          "name": "tokenURI",
          "type": "string"
        }
      ],
      "name": "NewHarmonyNFT",
      "type": "event"
    },
    {
      "anonymous": false,
      "inputs": [
        {
          "indexed": true,
          "internalType": "address",
          "name": "from",
          "type": "address"
        },
        {
          "indexed": true,
          "internalType": "address",
          "name": "to",
          "type": "address"
        },
        {
          "indexed": true,
          "internalType": "uint256",
          "name": "tokenId",
          "type": "uint256"
        }
      ],
      "name": "Transfer",
      "type": "event"
    },
    {
      "inputs": [
        {
          "internalType": "address",
          "name": "to",
          "type": "address"
        },
        {
          "internalType": "uint256",
          "name": "tokenId",
          "type": "uint256"
        }
      ],
      "name": "approve",
      "outputs": [],
      "stateMutability": "nonpayable",
      "type": "function"
    },
    {
      "inputs": [
        {
          "internalType": "address",
          "name": "owner",
          "type": "address"
        }
      ],
      "name": "balanceOf",
      "outputs": [
        {
          "internalType": "uint256",
          "name": "",
          "type": "uint256"
        }
      ],
      "stateMutability": "view",
      "type": "function"
    },
    {
      "inputs": [
        {
          "internalType": "uint256",
          "name": "tokenId",
          "type": "uint256"
        }
      ],
      "name": "getApproved",
      "outputs": [
        {
          "internalType": "address",
          "name": "",
          "type": "address"
        }
      ],
      "stateMutability": "view",
      "type": "function"
    },
    {
      "inputs": [
        {
          "internalType": "address",
          "name": "owner",
          "type": "address"
        },
        {
          "internalType": "address",
          "name": "operator",
          "type": "address"
        }
      ],
      "name": "isApprovedForAll",
      "outputs": [
        {
          "internalType": "bool",
          "name": "",
          "type": "bool"
        }
      ],
      "stateMutability": "view",
      "type": "function"
    },
    {
      "inputs": [],
      "name": "name",
      "outputs": [
        {
          "internalType": "string",
          "name": "",
          "type": "string"
        }
      ],
      "stateMutability": "view",
      "type": "function"
    },
    {
      "inputs": [
        {
          "internalType": "uint256",
          "name": "tokenId",
          "type": "uint256"
        }
      ],
      "name": "ownerOf",
      "outputs": [
        {
          "internalType": "address",
          "name": "",
          "type": "address"
        }
      ],
      "stateMutability": "view",
      "type": "function"
    },
    {
      "inputs": [
        {
          "internalType": "address",
          "name": "from",
          "type": "address"
        },
        {
          "internalType": "address",
          "name": "to",
          "type": "address"
        },
        {
          "internalType": "uint256",
          "name": "tokenId",
          "type": "uint256"
        }
      ],
      "name": "safeTransferFrom",
      "outputs": [],
      "stateMutability": "nonpayable",
      "type": "function"
    },
    {
      "inputs": [
        {
          "internalType": "address",
          "name": "from",
          "type": "address"
        },
        {
          "internalType": "address",
          "name": "to",
          "type": "address"
        },
        {
          "internalType": "uint256",
          "name": "tokenId",
          "type": "uint256"
        },
        {
          "internalType": "bytes",
          "name": "_data",
          "type": "bytes"
        }
      ],
      "name": "safeTransferFrom",
      "outputs": [],
      "stateMutability": "nonpayable",
      "type": "function"
    },
    {
      "inputs": [
        {
          "internalType": "address",
          "name": "operator",
          "type": "address"
        },
        {
          "internalType": "bool",
          "name": "approved",
          "type": "bool"
        }
      ],
      "name": "setApprovalForAll",
      "outputs": [],
      "stateMutability": "nonpayable",
      "type": "function"
    },
    {
      "inputs": [
        {
          "internalType": "bytes4",
          "name": "interfaceId",
          "type": "bytes4"
        }
      ],
      "name": "supportsInterface",
      "outputs": [
        {
          "internalType": "bool",
          "name": "",
          "type": "bool"
        }
      ],
      "stateMutability": "view",
      "type": "function"
    },
    {
      "inputs": [],
      "name": "symbol",
      "outputs": [
        {
          "internalType": "string",
          "name": "",
          "type": "string"
        }
      ],
      "stateMutability": "view",
      "type": "function"
    },
    {
      "inputs": [
        {
          "internalType": "uint256",
          "name": "tokenId",
          "type": "uint256"
        }
      ],
      "name": "tokenURI",
      "outputs": [
        {
          "internalType": "string",
          "name": "",
          "type": "string"
        }
      ],
      "stateMutability": "view",
      "type": "function"
    },
    {
      "inputs": [
        {
          "internalType": "address",
          "name": "from",
          "type": "address"
        },
        {
          "internalType": "address",
          "name": "to",
          "type": "address"
        },
        {
          "internalType": "uint256",
          "name": "tokenId",
          "type": "uint256"
        }
      ],
      "name": "transferFrom",
      "outputs": [],
      "stateMutability": "nonpayable",
      "type": "function"
    },
    {
      "inputs": [
        {
          "internalType": "string",
          "name": "tokenURI",
          "type": "string"
        }
      ],
      "name": "mintItem",
      "outputs": [],
      "stateMutability": "nonpayable",
      "type": "function"
    }
  ],
  "bytecode": "0x60806040523480156200001157600080fd5b506040518060400160405280601981526020017f455448206f6e204861726d6f6e79204279204c6f6e67666569000000000000008152506040518060400160405280600681526020017f484e46542d4c0000000000000000000000000000000000000000000000000000815250816000908051906020019062000096929190620000b8565b508060019080519060200190620000af929190620000b8565b505050620001cd565b828054620000c69062000168565b90600052602060002090601f016020900481019282620000ea576000855562000136565b82601f106200010557805160ff191683800117855562000136565b8280016001018555821562000136579182015b828111156200013557825182559160200191906001019062000118565b5b50905062000145919062000149565b5090565b5b80821115620001645760008160009055506001016200014a565b5090565b600060028204905060018216806200018157607f821691505b602082108114156200019857620001976200019e565b5b50919050565b7f4e487b7100000000000000000000000000000000000000000000000000000000600052602260045260246000fd5b612bb880620001dd6000396000f3fe608060405234801561001057600080fd5b50600436106100ea5760003560e01c806370a082311161008c578063b88d4fde11610066578063b88d4fde1461025b578063c754584914610277578063c87b56dd14610293578063e985e9c5146102c3576100ea565b806370a08231146101f157806395d89b4114610221578063a22cb4651461023f576100ea565b8063095ea7b3116100c8578063095ea7b31461016d57806323b872dd1461018957806342842e0e146101a55780636352211e146101c1576100ea565b806301ffc9a7146100ef57806306fdde031461011f578063081812fc1461013d575b600080fd5b61010960048036038101906101049190611be6565b6102f3565b604051610116919061206b565b60405180910390f35b6101276103d5565b6040516101349190612086565b60405180910390f35b61015760048036038101906101529190611c79565b610467565b6040516101649190611fc6565b60405180910390f35b61018760048036038101906101829190611baa565b6104ec565b005b6101a3600480360381019061019e9190611aa4565b610604565b005b6101bf60048036038101906101ba9190611aa4565b610664565b005b6101db60048036038101906101d69190611c79565b610684565b6040516101e89190611fc6565b60405180910390f35b61020b60048036038101906102069190611a3f565b610736565b60405161021891906122a8565b60405180910390f35b6102296107ee565b6040516102369190612086565b60405180910390f35b61025960048036038101906102549190611b6e565b610880565b005b61027560048036038101906102709190611af3565b610896565b005b610291600480360381019061028c9190611c38565b6108f8565b005b6102ad60048036038101906102a89190611c79565b610963565b6040516102ba9190612086565b60405180910390f35b6102dd60048036038101906102d89190611a68565b610ab5565b6040516102ea919061206b565b60405180910390f35b60007f80ac58cd000000000000000000000000000000000000000000000000000000007bffffffffffffffffffffffffffffffffffffffffffffffffffffffff1916827bffffffffffffffffffffffffffffffffffffffffffffffffffffffff191614806103be57507f5b5e139f000000000000000000000000000000000000000000000000000000007bffffffffffffffffffffffffffffffffffffffffffffffffffffffff1916827bffffffffffffffffffffffffffffffffffffffffffffffffffffffff1916145b806103ce57506103cd82610b49565b5b9050919050565b6060600080546103e4906124fe565b80601f0160208091040260200160405190810160405280929190818152602001828054610410906124fe565b801561045d5780601f106104325761010080835404028352916020019161045d565b820191906000526020600020905b81548152906001019060200180831161044057829003601f168201915b5050505050905090565b600061047282610bb3565b6104b1576040517f08c379a00000000000000000000000000000000000000000000000000000000081526004016104a890612208565b60405180910390fd5b6004600083815260200190815260200160002060009054906101000a900473ffffffffffffffffffffffffffffffffffffffff169050919050565b60006104f782610684565b90508073ffffffffffffffffffffffffffffffffffffffff168373ffffffffffffffffffffffffffffffffffffffff161415610568576040517f08c379a000000000000000000000000000000000000000000000000000000000815260040161055f90612268565b60405180910390fd5b8073ffffffffffffffffffffffffffffffffffffffff16610587610c1f565b73ffffffffffffffffffffffffffffffffffffffff1614806105b657506105b5816105b0610c1f565b610ab5565b5b6105f5576040517f08c379a00000000000000000000000000000000000000000000000000000000081526004016105ec90612148565b60405180910390fd5b6105ff8383610c27565b505050565b61061561060f610c1f565b82610ce0565b610654576040517f08c379a000000000000000000000000000000000000000000000000000000000815260040161064b90612288565b60405180910390fd5b61065f838383610dbe565b505050565b61067f83838360405180602001604052806000815250610896565b505050565b6000806002600084815260200190815260200160002060009054906101000a900473ffffffffffffffffffffffffffffffffffffffff169050600073ffffffffffffffffffffffffffffffffffffffff168173ffffffffffffffffffffffffffffffffffffffff16141561072d576040517f08c379a000000000000000000000000000000000000000000000000000000000815260040161072490612188565b60405180910390fd5b80915050919050565b60008073ffffffffffffffffffffffffffffffffffffffff168273ffffffffffffffffffffffffffffffffffffffff1614156107a7576040517f08c379a000000000000000000000000000000000000000000000000000000000815260040161079e90612168565b60405180910390fd5b600360008373ffffffffffffffffffffffffffffffffffffffff1673ffffffffffffffffffffffffffffffffffffffff168152602001908152602001600020549050919050565b6060600180546107fd906124fe565b80601f0160208091040260200160405190810160405280929190818152602001828054610829906124fe565b80156108765780601f1061084b57610100808354040283529160200191610876565b820191906000526020600020905b81548152906001019060200180831161085957829003601f168201915b5050505050905090565b61089261088b610c1f565b838361101a565b5050565b6108a76108a1610c1f565b83610ce0565b6108e6576040517f08c379a00000000000000000000000000000000000000000000000000000000081526004016108dd90612288565b60405180910390fd5b6108f284848484611187565b50505050565b61090260076111e3565b600061090e60076111f9565b905061091a3382611207565b61092481836113d5565b7fdf2b50dc252ce35e6fe273525ddf84f2494bbfca6c0ad3d9b0b90d1f487b1fca3382846040516109579392919061202d565b60405180910390a15050565b606061096e82610bb3565b6109ad576040517f08c379a00000000000000000000000000000000000000000000000000000000081526004016109a4906121e8565b60405180910390fd5b60006006600084815260200190815260200160002080546109cd906124fe565b80601f01602080910402602001604051908101604052809291908181526020018280546109f9906124fe565b8015610a465780601f10610a1b57610100808354040283529160200191610a46565b820191906000526020600020905b815481529060010190602001808311610a2957829003601f168201915b505050505090506000610a57611449565b9050600081511415610a6d578192505050610ab0565b600082511115610aa2578082604051602001610a8a929190611fa2565b60405160208183030381529060405292505050610ab0565b610aab84611460565b925050505b919050565b6000600560008473ffffffffffffffffffffffffffffffffffffffff1673ffffffffffffffffffffffffffffffffffffffff16815260200190815260200160002060008373ffffffffffffffffffffffffffffffffffffffff1673ffffffffffffffffffffffffffffffffffffffff16815260200190815260200160002060009054906101000a900460ff16905092915050565b60007f01ffc9a7000000000000000000000000000000000000000000000000000000007bffffffffffffffffffffffffffffffffffffffffffffffffffffffff1916827bffffffffffffffffffffffffffffffffffffffffffffffffffffffff1916149050919050565b60008073ffffffffffffffffffffffffffffffffffffffff166002600084815260200190815260200160002060009054906101000a900473ffffffffffffffffffffffffffffffffffffffff1673ffffffffffffffffffffffffffffffffffffffff1614159050919050565b600033905090565b816004600083815260200190815260200160002060006101000a81548173ffffffffffffffffffffffffffffffffffffffff021916908373ffffffffffffffffffffffffffffffffffffffff160217905550808273ffffffffffffffffffffffffffffffffffffffff16610c9a83610684565b73ffffffffffffffffffffffffffffffffffffffff167f8c5be1e5ebec7d5bd14f71427d1e84f3dd0314c0f7b2291e5b200ac8c7c3b92560405160405180910390a45050565b6000610ceb82610bb3565b610d2a576040517f08c379a0000000000000000000000000000000000000000000000000000000008152600401610d2190612128565b60405180910390fd5b6000610d3583610684565b90508073ffffffffffffffffffffffffffffffffffffffff168473ffffffffffffffffffffffffffffffffffffffff161480610da457508373ffffffffffffffffffffffffffffffffffffffff16610d8c84610467565b73ffffffffffffffffffffffffffffffffffffffff16145b80610db55750610db48185610ab5565b5b91505092915050565b8273ffffffffffffffffffffffffffffffffffffffff16610dde82610684565b73ffffffffffffffffffffffffffffffffffffffff1614610e34576040517f08c379a0000000000000000000000000000000000000000000000000000000008152600401610e2b90612228565b60405180910390fd5b600073ffffffffffffffffffffffffffffffffffffffff168273ffffffffffffffffffffffffffffffffffffffff161415610ea4576040517f08c379a0000000000000000000000000000000000000000000000000000000008152600401610e9b906120e8565b60405180910390fd5b610eaf838383611507565b610eba600082610c27565b6001600360008573ffffffffffffffffffffffffffffffffffffffff1673ffffffffffffffffffffffffffffffffffffffff1681526020019081526020016000206000828254610f0a9190612414565b925050819055506001600360008473ffffffffffffffffffffffffffffffffffffffff1673ffffffffffffffffffffffffffffffffffffffff1681526020019081526020016000206000828254610f61919061238d565b92505081905550816002600083815260200190815260200160002060006101000a81548173ffffffffffffffffffffffffffffffffffffffff021916908373ffffffffffffffffffffffffffffffffffffffff160217905550808273ffffffffffffffffffffffffffffffffffffffff168473ffffffffffffffffffffffffffffffffffffffff167fddf252ad1be2c89b69c2b068fc378daa952ba7f163c4a11628f55a4df523b3ef60405160405180910390a4505050565b8173ffffffffffffffffffffffffffffffffffffffff168373ffffffffffffffffffffffffffffffffffffffff161415611089576040517f08c379a000000000000000000000000000000000000000000000000000000000815260040161108090612108565b60405180910390fd5b80600560008573ffffffffffffffffffffffffffffffffffffffff1673ffffffffffffffffffffffffffffffffffffffff16815260200190815260200160002060008473ffffffffffffffffffffffffffffffffffffffff1673ffffffffffffffffffffffffffffffffffffffff16815260200190815260200160002060006101000a81548160ff0219169083151502179055508173ffffffffffffffffffffffffffffffffffffffff168373ffffffffffffffffffffffffffffffffffffffff167f17307eab39ab6107e8899845ad3d59bd9653f200f220920489ca2b5937696c318360405161117a919061206b565b60405180910390a3505050565b611192848484610dbe565b61119e8484848461150c565b6111dd576040517f08c379a00000000000000000000000000000000000000000000000000000000081526004016111d4906120a8565b60405180910390fd5b50505050565b6001816000016000828254019250508190555050565b600081600001549050919050565b600073ffffffffffffffffffffffffffffffffffffffff168273ffffffffffffffffffffffffffffffffffffffff161415611277576040517f08c379a000000000000000000000000000000000000000000000000000000000815260040161126e906121c8565b60405180910390fd5b61128081610bb3565b156112c0576040517f08c379a00000000000000000000000000000000000000000000000000000000081526004016112b7906120c8565b60405180910390fd5b6112cc60008383611507565b6001600360008473ffffffffffffffffffffffffffffffffffffffff1673ffffffffffffffffffffffffffffffffffffffff168152602001908152602001600020600082825461131c919061238d565b92505081905550816002600083815260200190815260200160002060006101000a81548173ffffffffffffffffffffffffffffffffffffffff021916908373ffffffffffffffffffffffffffffffffffffffff160217905550808273ffffffffffffffffffffffffffffffffffffffff16600073ffffffffffffffffffffffffffffffffffffffff167fddf252ad1be2c89b69c2b068fc378daa952ba7f163c4a11628f55a4df523b3ef60405160405180910390a45050565b6113de82610bb3565b61141d576040517f08c379a0000000000000000000000000000000000000000000000000000000008152600401611414906121a8565b60405180910390fd5b80600660008481526020019081526020016000209080519060200190611444929190611863565b505050565b606060405180602001604052806000815250905090565b606061146b82610bb3565b6114aa576040517f08c379a00000000000000000000000000000000000000000000000000000000081526004016114a190612248565b60405180910390fd5b60006114b4611449565b905060008151116114d457604051806020016040528060008152506114ff565b806114de846116a3565b6040516020016114ef929190611fa2565b6040516020818303038152906040525b915050919050565b505050565b600061152d8473ffffffffffffffffffffffffffffffffffffffff16611850565b15611696578373ffffffffffffffffffffffffffffffffffffffff1663150b7a02611556610c1f565b8786866040518563ffffffff1660e01b81526004016115789493929190611fe1565b602060405180830381600087803b15801561159257600080fd5b505af19250505080156115c357506040513d601f19601f820116820180604052508101906115c09190611c0f565b60015b611646573d80600081146115f3576040519150601f19603f3d011682016040523d82523d6000602084013e6115f8565b606091505b5060008151141561163e576040517f08c379a0000000000000000000000000000000000000000000000000000000008152600401611635906120a8565b60405180910390fd5b805181602001fd5b63150b7a0260e01b7bffffffffffffffffffffffffffffffffffffffffffffffffffffffff1916817bffffffffffffffffffffffffffffffffffffffffffffffffffffffff19161491505061169b565b600190505b949350505050565b606060008214156116eb576040518060400160405280600181526020017f3000000000000000000000000000000000000000000000000000000000000000815250905061184b565b600082905060005b6000821461171d57808061170690612561565b915050600a8261171691906123e3565b91506116f3565b60008167ffffffffffffffff81111561175f577f4e487b7100000000000000000000000000000000000000000000000000000000600052604160045260246000fd5b6040519080825280601f01601f1916602001820160405280156117915781602001600182028036833780820191505090505b5090505b60008514611844576001826117aa9190612414565b9150600a856117b991906125aa565b60306117c5919061238d565b60f81b818381518110611801577f4e487b7100000000000000000000000000000000000000000000000000000000600052603260045260246000fd5b60200101907effffffffffffffffffffffffffffffffffffffffffffffffffffffffffffff1916908160001a905350600a8561183d91906123e3565b9450611795565b8093505050505b919050565b600080823b905060008111915050919050565b82805461186f906124fe565b90600052602060002090601f01602090048101928261189157600085556118d8565b82601f106118aa57805160ff19168380011785556118d8565b828001600101855582156118d8579182015b828111156118d75782518255916020019190600101906118bc565b5b5090506118e591906118e9565b5090565b5b808211156119025760008160009055506001016118ea565b5090565b6000611919611914846122e8565b6122c3565b90508281526020810184848401111561193157600080fd5b61193c8482856124bc565b509392505050565b600061195761195284612319565b6122c3565b90508281526020810184848401111561196f57600080fd5b61197a8482856124bc565b509392505050565b60008135905061199181612b26565b92915050565b6000813590506119a681612b3d565b92915050565b6000813590506119bb81612b54565b92915050565b6000815190506119d081612b54565b92915050565b600082601f8301126119e757600080fd5b81356119f7848260208601611906565b91505092915050565b600082601f830112611a1157600080fd5b8135611a21848260208601611944565b91505092915050565b600081359050611a3981612b6b565b92915050565b600060208284031215611a5157600080fd5b6000611a5f84828501611982565b91505092915050565b60008060408385031215611a7b57600080fd5b6000611a8985828601611982565b9250506020611a9a85828601611982565b9150509250929050565b600080600060608486031215611ab957600080fd5b6000611ac786828701611982565b9350506020611ad886828701611982565b9250506040611ae986828701611a2a565b9150509250925092565b60008060008060808587031215611b0957600080fd5b6000611b1787828801611982565b9450506020611b2887828801611982565b9350506040611b3987828801611a2a565b925050606085013567ffffffffffffffff811115611b5657600080fd5b611b62878288016119d6565b91505092959194509250565b60008060408385031215611b8157600080fd5b6000611b8f85828601611982565b9250506020611ba085828601611997565b9150509250929050565b60008060408385031215611bbd57600080fd5b6000611bcb85828601611982565b9250506020611bdc85828601611a2a565b9150509250929050565b600060208284031215611bf857600080fd5b6000611c06848285016119ac565b91505092915050565b600060208284031215611c2157600080fd5b6000611c2f848285016119c1565b91505092915050565b600060208284031215611c4a57600080fd5b600082013567ffffffffffffffff811115611c6457600080fd5b611c7084828501611a00565b91505092915050565b600060208284031215611c8b57600080fd5b6000611c9984828501611a2a565b91505092915050565b611cab81612448565b82525050565b611cba8161245a565b82525050565b6000611ccb8261234a565b611cd58185612360565b9350611ce58185602086016124cb565b611cee81612697565b840191505092915050565b6000611d0482612355565b611d0e8185612371565b9350611d1e8185602086016124cb565b611d2781612697565b840191505092915050565b6000611d3d82612355565b611d478185612382565b9350611d578185602086016124cb565b80840191505092915050565b6000611d70603283612371565b9150611d7b826126a8565b604082019050919050565b6000611d93601c83612371565b9150611d9e826126f7565b602082019050919050565b6000611db6602483612371565b9150611dc182612720565b604082019050919050565b6000611dd9601983612371565b9150611de48261276f565b602082019050919050565b6000611dfc602c83612371565b9150611e0782612798565b604082019050919050565b6000611e1f603883612371565b9150611e2a826127e7565b604082019050919050565b6000611e42602a83612371565b9150611e4d82612836565b604082019050919050565b6000611e65602983612371565b9150611e7082612885565b604082019050919050565b6000611e88602e83612371565b9150611e93826128d4565b604082019050919050565b6000611eab602083612371565b9150611eb682612923565b602082019050919050565b6000611ece603183612371565b9150611ed98261294c565b604082019050919050565b6000611ef1602c83612371565b9150611efc8261299b565b604082019050919050565b6000611f14602983612371565b9150611f1f826129ea565b604082019050919050565b6000611f37602f83612371565b9150611f4282612a39565b604082019050919050565b6000611f5a602183612371565b9150611f6582612a88565b604082019050919050565b6000611f7d603183612371565b9150611f8882612ad7565b604082019050919050565b611f9c816124b2565b82525050565b6000611fae8285611d32565b9150611fba8284611d32565b91508190509392505050565b6000602082019050611fdb6000830184611ca2565b92915050565b6000608082019050611ff66000830187611ca2565b6120036020830186611ca2565b6120106040830185611f93565b81810360608301526120228184611cc0565b905095945050505050565b60006060820190506120426000830186611ca2565b61204f6020830185611f93565b81810360408301526120618184611cf9565b9050949350505050565b60006020820190506120806000830184611cb1565b92915050565b600060208201905081810360008301526120a08184611cf9565b905092915050565b600060208201905081810360008301526120c181611d63565b9050919050565b600060208201905081810360008301526120e181611d86565b9050919050565b6000602082019050818103600083015261210181611da9565b9050919050565b6000602082019050818103600083015261212181611dcc565b9050919050565b6000602082019050818103600083015261214181611def565b9050919050565b6000602082019050818103600083015261216181611e12565b9050919050565b6000602082019050818103600083015261218181611e35565b9050919050565b600060208201905081810360008301526121a181611e58565b9050919050565b600060208201905081810360008301526121c181611e7b565b9050919050565b600060208201905081810360008301526121e181611e9e565b9050919050565b6000602082019050818103600083015261220181611ec1565b9050919050565b6000602082019050818103600083015261222181611ee4565b9050919050565b6000602082019050818103600083015261224181611f07565b9050919050565b6000602082019050818103600083015261226181611f2a565b9050919050565b6000602082019050818103600083015261228181611f4d565b9050919050565b600060208201905081810360008301526122a181611f70565b9050919050565b60006020820190506122bd6000830184611f93565b92915050565b60006122cd6122de565b90506122d98282612530565b919050565b6000604051905090565b600067ffffffffffffffff82111561230357612302612668565b5b61230c82612697565b9050602081019050919050565b600067ffffffffffffffff82111561233457612333612668565b5b61233d82612697565b9050602081019050919050565b600081519050919050565b600081519050919050565b600082825260208201905092915050565b600082825260208201905092915050565b600081905092915050565b6000612398826124b2565b91506123a3836124b2565b9250827fffffffffffffffffffffffffffffffffffffffffffffffffffffffffffffffff038211156123d8576123d76125db565b5b828201905092915050565b60006123ee826124b2565b91506123f9836124b2565b9250826124095761240861260a565b5b828204905092915050565b600061241f826124b2565b915061242a836124b2565b92508282101561243d5761243c6125db565b5b828203905092915050565b600061245382612492565b9050919050565b60008115159050919050565b60007fffffffff0000000000000000000000000000000000000000000000000000000082169050919050565b600073ffffffffffffffffffffffffffffffffffffffff82169050919050565b6000819050919050565b82818337600083830152505050565b60005b838110156124e95780820151818401526020810190506124ce565b838111156124f8576000848401525b50505050565b6000600282049050600182168061251657607f821691505b6020821081141561252a57612529612639565b5b50919050565b61253982612697565b810181811067ffffffffffffffff8211171561255857612557612668565b5b80604052505050565b600061256c826124b2565b91507fffffffffffffffffffffffffffffffffffffffffffffffffffffffffffffffff82141561259f5761259e6125db565b5b600182019050919050565b60006125b5826124b2565b91506125c0836124b2565b9250826125d0576125cf61260a565b5b828206905092915050565b7f4e487b7100000000000000000000000000000000000000000000000000000000600052601160045260246000fd5b7f4e487b7100000000000000000000000000000000000000000000000000000000600052601260045260246000fd5b7f4e487b7100000000000000000000000000000000000000000000000000000000600052602260045260246000fd5b7f4e487b7100000000000000000000000000000000000000000000000000000000600052604160045260246000fd5b6000601f19601f8301169050919050565b7f4552433732313a207472616e7366657220746f206e6f6e20455243373231526560008201527f63656976657220696d706c656d656e7465720000000000000000000000000000602082015250565b7f4552433732313a20746f6b656e20616c7265616479206d696e74656400000000600082015250565b7f4552433732313a207472616e7366657220746f20746865207a65726f2061646460008201527f7265737300000000000000000000000000000000000000000000000000000000602082015250565b7f4552433732313a20617070726f766520746f2063616c6c657200000000000000600082015250565b7f4552433732313a206f70657261746f7220717565727920666f72206e6f6e657860008201527f697374656e7420746f6b656e0000000000000000000000000000000000000000602082015250565b7f4552433732313a20617070726f76652063616c6c6572206973206e6f74206f7760008201527f6e6572206e6f7220617070726f76656420666f7220616c6c0000000000000000602082015250565b7f4552433732313a2062616c616e636520717565727920666f7220746865207a6560008201527f726f206164647265737300000000000000000000000000000000000000000000602082015250565b7f4552433732313a206f776e657220717565727920666f72206e6f6e657869737460008201527f656e7420746f6b656e0000000000000000000000000000000000000000000000602082015250565b7f45524337323155524953746f726167653a2055524920736574206f66206e6f6e60008201527f6578697374656e7420746f6b656e000000000000000000000000000000000000602082015250565b7f4552433732313a206d696e7420746f20746865207a65726f2061646472657373600082015250565b7f45524337323155524953746f726167653a2055524920717565727920666f722060008201527f6e6f6e6578697374656e7420746f6b656e000000000000000000000000000000602082015250565b7f4552433732313a20617070726f76656420717565727920666f72206e6f6e657860008201527f697374656e7420746f6b656e0000000000000000000000000000000000000000602082015250565b7f4552433732313a207472616e73666572206f6620746f6b656e2074686174206960008201527f73206e6f74206f776e0000000000000000000000000000000000000000000000602082015250565b7f4552433732314d657461646174613a2055524920717565727920666f72206e6f60008201527f6e6578697374656e7420746f6b656e0000000000000000000000000000000000602082015250565b7f4552433732313a20617070726f76616c20746f2063757272656e74206f776e6560008201527f7200000000000000000000000000000000000000000000000000000000000000602082015250565b7f4552433732313a207472616e736665722063616c6c6572206973206e6f74206f60008201527f776e6572206e6f7220617070726f766564000000000000000000000000000000602082015250565b612b2f81612448565b8114612b3a57600080fd5b50565b612b468161245a565b8114612b5157600080fd5b50565b612b5d81612466565b8114612b6857600080fd5b50565b612b74816124b2565b8114612b7f57600080fd5b5056fea26469706673582212206f5ecfbedf07ea717f39ace7bb58faae8090232e34a6b4153043af777e822edd64736f6c63430008040033",
  "immutableReferences": {},
  "source": "// SPDX-License-Identifier: UNLICENSED\npragma solidity >=0.4.22 <0.9.0;\n\nimport \"@openzeppelin/contracts/token/ERC721/extensions/ERC721URIStorage.sol\";\nimport \"@openzeppelin/contracts/utils/Counters.sol\";\n\ncontract HarmonyNFT is ERC721URIStorage{\n    using Counters for Counters.Counter;\n    Counters.Counter private _tokenIds;\n\n    event NewHarmonyNFT(address sender, uint256 tokenId, string tokenURI);\n\n    constructor() ERC721 (\"ETH on Harmony By Longfei\", \"HNFT-L\") {\n\n    }\n\n    function mintItem(string memory tokenURI) public{\n        _tokenIds.increment();\n\n        uint256 newItemId = _tokenIds.current();\n        _mint(msg.sender, newItemId);\n        _setTokenURI(newItemId, tokenURI);\n        emit NewHarmonyNFT(msg.sender, newItemId, tokenURI);\n    }\n}",
  "sourcePath": "/Users/longfeiwang/Documents/GitHub/LongfeiWan9/harmony-nft/contracts/HarmonyNft.sol",
  "compiler": {
    "name": "solc",
    "version": "0.8.4+commit.c7e474f2.Emscripten.clang"
  },
  "schemaVersion": "3.4.3",
  "updatedAt": "2022-01-26T06:44:39.215Z",
  "devdoc": {
    "kind": "dev",
    "methods": {
      "approve(address,uint256)": {
        "details": "See {IERC721-approve}."
      },
      "balanceOf(address)": {
        "details": "See {IERC721-balanceOf}."
      },
      "getApproved(uint256)": {
        "details": "See {IERC721-getApproved}."
      },
      "isApprovedForAll(address,address)": {
        "details": "See {IERC721-isApprovedForAll}."
      },
      "name()": {
        "details": "See {IERC721Metadata-name}."
      },
      "ownerOf(uint256)": {
        "details": "See {IERC721-ownerOf}."
      },
      "safeTransferFrom(address,address,uint256)": {
        "details": "See {IERC721-safeTransferFrom}."
      },
      "safeTransferFrom(address,address,uint256,bytes)": {
        "details": "See {IERC721-safeTransferFrom}."
      },
      "setApprovalForAll(address,bool)": {
        "details": "See {IERC721-setApprovalForAll}."
      },
      "supportsInterface(bytes4)": {
        "details": "See {IERC165-supportsInterface}."
      },
      "symbol()": {
        "details": "See {IERC721Metadata-symbol}."
      },
      "tokenURI(uint256)": {
        "details": "See {IERC721Metadata-tokenURI}."
      },
      "transferFrom(address,address,uint256)": {
        "details": "See {IERC721-transferFrom}."
      }
    },
    "version": 1
  },
  "userdoc": {
    "kind": "user",
    "methods": {},
    "version": 1
  }
}